{
  "_format": "hh-sol-artifact-1",
  "contractName": "Crowdfunding",
  "sourceName": "contracts/Crowdfunding.sol",
  "abi": [
    {
      "anonymous": false,
      "inputs": [
        {
          "indexed": false,
          "internalType": "uint256",
          "name": "id",
          "type": "uint256"
        },
        {
          "indexed": false,
          "internalType": "address",
          "name": "owner",
          "type": "address"
        },
        {
          "indexed": false,
          "internalType": "uint256",
          "name": "goal",
          "type": "uint256"
        },
        {
          "indexed": false,
          "internalType": "uint256",
          "name": "deadline",
          "type": "uint256"
        }
      ],
      "name": "CampaignCreated",
      "type": "event"
    },
    {
      "anonymous": false,
      "inputs": [
        {
          "indexed": false,
          "internalType": "uint256",
          "name": "id",
          "type": "uint256"
        },
        {
          "indexed": true,
          "internalType": "address",
          "name": "funder",
          "type": "address"
        },
        {
          "indexed": false,
          "internalType": "uint256",
          "name": "amount",
          "type": "uint256"
        }
      ],
      "name": "Pledged",
      "type": "event"
    },
    {
      "anonymous": false,
      "inputs": [
        {
          "indexed": false,
          "internalType": "uint256",
          "name": "id",
          "type": "uint256"
        },
        {
          "indexed": true,
          "internalType": "address",
          "name": "funder",
          "type": "address"
        },
        {
          "indexed": false,
          "internalType": "uint256",
          "name": "amount",
          "type": "uint256"
        }
      ],
      "name": "Refunded",
      "type": "event"
    },
    {
      "anonymous": false,
      "inputs": [
        {
          "indexed": false,
          "internalType": "uint256",
          "name": "id",
          "type": "uint256"
        },
        {
          "indexed": false,
          "internalType": "address",
          "name": "owner",
          "type": "address"
        },
        {
          "indexed": false,
          "internalType": "uint256",
          "name": "amount",
          "type": "uint256"
        }
      ],
      "name": "Withdrawn",
      "type": "event"
    },
    {
      "inputs": [],
      "name": "campaignCount",
      "outputs": [
        {
          "internalType": "uint256",
          "name": "",
          "type": "uint256"
        }
      ],
      "stateMutability": "view",
      "type": "function"
    },
    {
      "inputs": [
        {
          "internalType": "uint256",
          "name": "",
          "type": "uint256"
        }
      ],
      "name": "campaigns",
      "outputs": [
        {
          "internalType": "address",
          "name": "creator",
          "type": "address"
        },
        {
          "internalType": "address payable",
          "name": "beneficiary",
          "type": "address"
        },
        {
          "internalType": "string",
          "name": "description",
          "type": "string"
        },
        {
          "internalType": "string",
          "name": "title",
          "type": "string"
        },
        {
          "internalType": "uint256",
          "name": "goal",
          "type": "uint256"
        },
        {
          "internalType": "uint256",
          "name": "pledged",
          "type": "uint256"
        },
        {
          "internalType": "uint256",
          "name": "deadline",
          "type": "uint256"
        },
        {
          "internalType": "bool",
          "name": "claimed",
          "type": "bool"
        }
      ],
      "stateMutability": "view",
      "type": "function"
    },
    {
      "inputs": [
        {
          "internalType": "string",
          "name": "_title",
          "type": "string"
        },
        {
          "internalType": "string",
          "name": "_description",
          "type": "string"
        },
        {
          "internalType": "uint256",
          "name": "_goal",
          "type": "uint256"
        },
        {
          "internalType": "uint256",
          "name": "_duration",
          "type": "uint256"
        },
        {
          "internalType": "address payable",
          "name": "_beneficiary",
          "type": "address"
        }
      ],
      "name": "createCampaign",
      "outputs": [],
      "stateMutability": "nonpayable",
      "type": "function"
    },
    {
      "inputs": [],
      "name": "getCampaigns",
      "outputs": [
        {
          "components": [
            {
              "internalType": "address",
              "name": "creator",
              "type": "address"
            },
            {
              "internalType": "address payable",
              "name": "beneficiary",
              "type": "address"
            },
            {
              "internalType": "string",
              "name": "description",
              "type": "string"
            },
            {
              "internalType": "string",
              "name": "title",
              "type": "string"
            },
            {
              "internalType": "uint256",
              "name": "goal",
              "type": "uint256"
            },
            {
              "internalType": "uint256",
              "name": "pledged",
              "type": "uint256"
            },
            {
              "internalType": "uint256",
              "name": "deadline",
              "type": "uint256"
            },
            {
              "internalType": "bool",
              "name": "claimed",
              "type": "bool"
            }
          ],
          "internalType": "struct Crowdfunding.Campaign[]",
          "name": "",
          "type": "tuple[]"
        }
      ],
      "stateMutability": "view",
      "type": "function"
    },
    {
      "inputs": [
        {
          "internalType": "uint256",
          "name": "_id",
          "type": "uint256"
        }
      ],
      "name": "pledge",
      "outputs": [],
      "stateMutability": "payable",
      "type": "function"
    },
    {
      "inputs": [
        {
          "internalType": "uint256",
          "name": "",
          "type": "uint256"
        },
        {
          "internalType": "address",
          "name": "",
          "type": "address"
        }
      ],
      "name": "pledges",
      "outputs": [
        {
          "internalType": "uint256",
          "name": "",
          "type": "uint256"
        }
      ],
      "stateMutability": "view",
      "type": "function"
    },
    {
      "inputs": [
        {
          "internalType": "uint256",
          "name": "_id",
          "type": "uint256"
        }
      ],
      "name": "refund",
      "outputs": [],
      "stateMutability": "nonpayable",
      "type": "function"
    },
    {
      "inputs": [
        {
          "internalType": "uint256",
          "name": "_id",
          "type": "uint256"
        }
      ],
      "name": "withdraw",
      "outputs": [],
      "stateMutability": "nonpayable",
      "type": "function"
    }
  ],
  "bytecode": "0x608060405234801561001057600080fd5b506126d2806100206000396000f3fe60806040526004361061007b5760003560e01c80637274e30d1161004e5780637274e30d1461013f5780637326c9c01461016a5780638e97f52414610186578063a6b03633146101c35761007b565b8063141961bc14610080578063278ecde1146100c45780632bfec047146100ed5780632e1a7d4d14610116575b600080fd5b34801561008c57600080fd5b506100a760048036038101906100a291906116b9565b6101ee565b6040516100bb989796959493929190611802565b60405180910390f35b3480156100d057600080fd5b506100eb60048036038101906100e691906116b9565b610393565b005b3480156100f957600080fd5b50610114600480360381019061010f919061191f565b6106b9565b005b34801561012257600080fd5b5061013d600480360381019061013891906116b9565b610b26565b005b34801561014b57600080fd5b50610154610e78565b60405161016191906119db565b60405180910390f35b610184600480360381019061017f91906116b9565b610e7e565b005b34801561019257600080fd5b506101ad60048036038101906101a89190611a22565b6110e8565b6040516101ba91906119db565b60405180910390f35b3480156101cf57600080fd5b506101d861110d565b6040516101e59190611c61565b60405180910390f35b60016020528060005260406000206000915090508060000160009054906101000a900473ffffffffffffffffffffffffffffffffffffffff16908060010160009054906101000a900473ffffffffffffffffffffffffffffffffffffffff169080600201805461025d90611cb2565b80601f016020809104026020016040519081016040528092919081815260200182805461028990611cb2565b80156102d65780601f106102ab576101008083540402835291602001916102d6565b820191906000526020600020905b8154815290600101906020018083116102b957829003601f168201915b5050505050908060030180546102eb90611cb2565b80601f016020809104026020016040519081016040528092919081815260200182805461031790611cb2565b80156103645780601f1061033957610100808354040283529160200191610364565b820191906000526020600020905b81548152906001019060200180831161034757829003601f168201915b5050505050908060040154908060050154908060060154908060070160009054906101000a900460ff16905088565b80600181101580156103a757506000548111155b6103e6576040517f08c379a00000000000000000000000000000000000000000000000000000000081526004016103dd90611d2f565b60405180910390fd5b60006001600084815260200190815260200160002090508060060154421015610444576040517f08c379a000000000000000000000000000000000000000000000000000000000815260040161043b90611d9b565b60405180910390fd5b806004015481600501541061048e576040517f08c379a000000000000000000000000000000000000000000000000000000000815260040161048590611e07565b60405180910390fd5b60006002600085815260200190815260200160002060003373ffffffffffffffffffffffffffffffffffffffff1673ffffffffffffffffffffffffffffffffffffffff16815260200190815260200160002054905060008111610526576040517f08c379a000000000000000000000000000000000000000000000000000000000815260040161051d90611e73565b60405180910390fd5b60006002600086815260200190815260200160002060003373ffffffffffffffffffffffffffffffffffffffff1673ffffffffffffffffffffffffffffffffffffffff168152602001908152602001600020819055503373ffffffffffffffffffffffffffffffffffffffff166108fc829081150290604051600060405180830381858888f193505050501580156105c2573d6000803e3d6000fd5b506105e560405180606001604052806022815260200161260e60229139856113e2565b6106246040518060400160405280600b81526020017f202020646f6e61746f723a0000000000000000000000000000000000000000008152503361147e565b6106636040518060400160405280601081526020017f202020616d6f756e742028776569293a00000000000000000000000000000000815250826113e2565b3373ffffffffffffffffffffffffffffffffffffffff167f7ca5472b7ea78c2c0141c5a12ee6d170cf4ce8ed06be3d22c8252ddfc7a6a2c485836040516106ab929190611e93565b60405180910390a250505050565b600083116106fc576040517f08c379a00000000000000000000000000000000000000000000000000000000081526004016106f390611f08565b60405180910390fd5b6000821161073f576040517f08c379a000000000000000000000000000000000000000000000000000000000815260040161073690611f74565b60405180910390fd5b60016000808282546107519190611fc3565b925050819055506040518061010001604052803373ffffffffffffffffffffffffffffffffffffffff1681526020018273ffffffffffffffffffffffffffffffffffffffff16815260200186868080601f016020809104026020016040519081016040528093929190818152602001838380828437600081840152601f19601f82011690508083019250505050505050815260200188888080601f016020809104026020016040519081016040528093929190818152602001838380828437600081840152601f19601f8201169050808301925050505050505081526020018481526020016000815260200183426108499190611fc3565b815260200160001515815250600160008054815260200190815260200160002060008201518160000160006101000a81548173ffffffffffffffffffffffffffffffffffffffff021916908373ffffffffffffffffffffffffffffffffffffffff16021790555060208201518160010160006101000a81548173ffffffffffffffffffffffffffffffffffffffff021916908373ffffffffffffffffffffffffffffffffffffffff160217905550604082015181600201908161090c91906121d2565b50606082015181600301908161092291906121d2565b506080820151816004015560a0820151816005015560c0820151816006015560e08201518160070160006101000a81548160ff021916908315150217905550905050610988604051806060016040528060248152602001612679602491396000546113e2565b6109c76040518060400160405280600981526020017f2020206f776e65723a00000000000000000000000000000000000000000000008152503361147e565b610a4a6040518060400160405280600981526020017f2020207469746c653a000000000000000000000000000000000000000000000081525088888080601f016020809104026020016040519081016040528093929190818152602001838380828437600081840152601f19601f8201169050808301925050505050505061151a565b610a896040518060400160405280600e81526020017f202020676f616c2028776569293a000000000000000000000000000000000000815250846113e2565b610ad36040518060400160405280601881526020017f202020646561646c696e65202874696d657374616d70293a00000000000000008152508342610ace9190611fc3565b6113e2565b7f91b289a829e71d811b8c69e4a24ba2d40d115d8a236e9a724cb3bb2d43cf722360005433858542610b059190611fc3565b604051610b1594939291906122a4565b60405180910390a150505050505050565b8060018110158015610b3a57506000548111155b610b79576040517f08c379a0000000000000000000000000000000000000000000000000000000008152600401610b7090611d2f565b60405180910390fd5b60006001600084815260200190815260200160002090508060000160009054906101000a900473ffffffffffffffffffffffffffffffffffffffff1673ffffffffffffffffffffffffffffffffffffffff163373ffffffffffffffffffffffffffffffffffffffff1614610c22576040517f08c379a0000000000000000000000000000000000000000000000000000000008152600401610c1990612335565b60405180910390fd5b8060060154421015610c69576040517f08c379a0000000000000000000000000000000000000000000000000000000008152600401610c6090611d9b565b60405180910390fd5b806004015481600501541015610cb4576040517f08c379a0000000000000000000000000000000000000000000000000000000008152600401610cab906123a1565b60405180910390fd5b8060070160009054906101000a900460ff1615610d06576040517f08c379a0000000000000000000000000000000000000000000000000000000008152600401610cfd9061240d565b60405180910390fd5b60018160070160006101000a81548160ff0219169083151502179055506000816005015490508160010160009054906101000a900473ffffffffffffffffffffffffffffffffffffffff1673ffffffffffffffffffffffffffffffffffffffff166108fc829081150290604051600060405180830381858888f19350505050158015610d96573d6000803e3d6000fd5b50610db960405180606001604052806024815260200161265560249139856113e2565b610df86040518060400160405280600981526020017f2020206f776e65723a00000000000000000000000000000000000000000000008152503361147e565b610e376040518060400160405280601081526020017f202020616d6f756e742028776569293a00000000000000000000000000000000815250826113e2565b7fcf7d23a3cbe4e8b36ff82fd1b05b1b17373dc7804b4ebbd6e2356716ef202372843383604051610e6a9392919061242d565b60405180910390a150505050565b60005481565b8060018110158015610e9257506000548111155b610ed1576040517f08c379a0000000000000000000000000000000000000000000000000000000008152600401610ec890611d2f565b60405180910390fd5b600060016000848152602001908152602001600020905080600601544210610f2e576040517f08c379a0000000000000000000000000000000000000000000000000000000008152600401610f25906124b0565b60405180910390fd5b34816005016000828254610f429190611fc3565b92505081905550346002600085815260200190815260200160002060003373ffffffffffffffffffffffffffffffffffffffff1673ffffffffffffffffffffffffffffffffffffffff1681526020019081526020016000206000828254610fa99190611fc3565b92505081905550610fd260405180606001604052806025815260200161263060259139846113e2565b6110116040518060400160405280600a81526020017f20202066756e6465723a000000000000000000000000000000000000000000008152503361147e565b6110506040518060400160405280600f81526020017f202020697a6e6f732028776569293a0000000000000000000000000000000000815250346113e2565b6110936040518060400160405280601881526020017f202020756b7570616e20706c65646765642028776569293a000000000000000081525082600501546113e2565b3373ffffffffffffffffffffffffffffffffffffffff167f2757ac6a40883f4491cc56930ae964df9034e343e660d5179eb01e198336756b84346040516110db929190611e93565b60405180910390a2505050565b6002602052816000526040600020602052806000526040600020600091509150505481565b60606000805467ffffffffffffffff81111561112c5761112b611ff7565b5b60405190808252806020026020018201604052801561116557816020015b6111526115fc565b81526020019060019003908161114a5790505b50905060005b6000548110156113da57600160006001836111869190611fc3565b8152602001908152602001600020604051806101000160405290816000820160009054906101000a900473ffffffffffffffffffffffffffffffffffffffff1673ffffffffffffffffffffffffffffffffffffffff1673ffffffffffffffffffffffffffffffffffffffff1681526020016001820160009054906101000a900473ffffffffffffffffffffffffffffffffffffffff1673ffffffffffffffffffffffffffffffffffffffff1673ffffffffffffffffffffffffffffffffffffffff16815260200160028201805461125c90611cb2565b80601f016020809104026020016040519081016040528092919081815260200182805461128890611cb2565b80156112d55780601f106112aa576101008083540402835291602001916112d5565b820191906000526020600020905b8154815290600101906020018083116112b857829003601f168201915b505050505081526020016003820180546112ee90611cb2565b80601f016020809104026020016040519081016040528092919081815260200182805461131a90611cb2565b80156113675780601f1061133c57610100808354040283529160200191611367565b820191906000526020600020905b81548152906001019060200180831161134a57829003601f168201915b505050505081526020016004820154815260200160058201548152602001600682015481526020016007820160009054906101000a900460ff1615151515815250508282815181106113bc576113bb6124d0565b5b602002602001018190525080806113d2906124ff565b91505061116b565b508091505090565b61147a82826040516024016113f8929190612547565b6040516020818303038152906040527fb60e72cc000000000000000000000000000000000000000000000000000000007bffffffffffffffffffffffffffffffffffffffffffffffffffffffff19166020820180517bffffffffffffffffffffffffffffffffffffffffffffffffffffffff83818316178352505050506115b6565b5050565b6115168282604051602401611494929190612577565b6040516020818303038152906040527f319af333000000000000000000000000000000000000000000000000000000007bffffffffffffffffffffffffffffffffffffffffffffffffffffffff19166020820180517bffffffffffffffffffffffffffffffffffffffffffffffffffffffff83818316178352505050506115b6565b5050565b6115b282826040516024016115309291906125a7565b6040516020818303038152906040527f4b5c4277000000000000000000000000000000000000000000000000000000007bffffffffffffffffffffffffffffffffffffffffffffffffffffffff19166020820180517bffffffffffffffffffffffffffffffffffffffffffffffffffffffff83818316178352505050506115b6565b5050565b6115cd816115c56115d06115f1565b63ffffffff16565b50565b60006a636f6e736f6c652e6c6f679050600080835160208501845afa505050565b61166f819050919050565b604051806101000160405280600073ffffffffffffffffffffffffffffffffffffffff168152602001600073ffffffffffffffffffffffffffffffffffffffff16815260200160608152602001606081526020016000815260200160008152602001600081526020016000151581525090565b6116776125de565b565b600080fd5b600080fd5b6000819050919050565b61169681611683565b81146116a157600080fd5b50565b6000813590506116b38161168d565b92915050565b6000602082840312156116cf576116ce611679565b5b60006116dd848285016116a4565b91505092915050565b600073ffffffffffffffffffffffffffffffffffffffff82169050919050565b6000611711826116e6565b9050919050565b61172181611706565b82525050565b6000611732826116e6565b9050919050565b61174281611727565b82525050565b600081519050919050565b600082825260208201905092915050565b60005b83811015611782578082015181840152602081019050611767565b60008484015250505050565b6000601f19601f8301169050919050565b60006117aa82611748565b6117b48185611753565b93506117c4818560208601611764565b6117cd8161178e565b840191505092915050565b6117e181611683565b82525050565b60008115159050919050565b6117fc816117e7565b82525050565b600061010082019050611818600083018b611718565b611825602083018a611739565b8181036040830152611837818961179f565b9050818103606083015261184b818861179f565b905061185a60808301876117d8565b61186760a08301866117d8565b61187460c08301856117d8565b61188160e08301846117f3565b9998505050505050505050565b600080fd5b600080fd5b600080fd5b60008083601f8401126118b3576118b261188e565b5b8235905067ffffffffffffffff8111156118d0576118cf611893565b5b6020830191508360018202830111156118ec576118eb611898565b5b9250929050565b6118fc81611727565b811461190757600080fd5b50565b600081359050611919816118f3565b92915050565b600080600080600080600060a0888a03121561193e5761193d611679565b5b600088013567ffffffffffffffff81111561195c5761195b61167e565b5b6119688a828b0161189d565b9750975050602088013567ffffffffffffffff81111561198b5761198a61167e565b5b6119978a828b0161189d565b955095505060406119aa8a828b016116a4565b93505060606119bb8a828b016116a4565b92505060806119cc8a828b0161190a565b91505092959891949750929550565b60006020820190506119f060008301846117d8565b92915050565b6119ff81611706565b8114611a0a57600080fd5b50565b600081359050611a1c816119f6565b92915050565b60008060408385031215611a3957611a38611679565b5b6000611a47858286016116a4565b9250506020611a5885828601611a0d565b9150509250929050565b600081519050919050565b600082825260208201905092915050565b6000819050602082019050919050565b611a9781611706565b82525050565b611aa681611727565b82525050565b600082825260208201905092915050565b6000611ac882611748565b611ad28185611aac565b9350611ae2818560208601611764565b611aeb8161178e565b840191505092915050565b611aff81611683565b82525050565b611b0e816117e7565b82525050565b600061010083016000830151611b2d6000860182611a8e565b506020830151611b406020860182611a9d565b5060408301518482036040860152611b588282611abd565b91505060608301518482036060860152611b728282611abd565b9150506080830151611b876080860182611af6565b5060a0830151611b9a60a0860182611af6565b5060c0830151611bad60c0860182611af6565b5060e0830151611bc060e0860182611b05565b508091505092915050565b6000611bd78383611b14565b905092915050565b6000602082019050919050565b6000611bf782611a62565b611c018185611a6d565b935083602082028501611c1385611a7e565b8060005b85811015611c4f5784840389528151611c308582611bcb565b9450611c3b83611bdf565b925060208a01995050600181019050611c17565b50829750879550505050505092915050565b60006020820190508181036000830152611c7b8184611bec565b905092915050565b7f4e487b7100000000000000000000000000000000000000000000000000000000600052602260045260246000fd5b60006002820490506001821680611cca57607f821691505b602082108103611cdd57611cdc611c83565b5b50919050565b7f43616d706169676e206e6520706f73746f6a6900000000000000000000000000600082015250565b6000611d19601383611753565b9150611d2482611ce3565b602082019050919050565b60006020820190508181036000830152611d4881611d0c565b9050919050565b7f43616d706169676e206e696a6520676f746f7600000000000000000000000000600082015250565b6000611d85601383611753565b9150611d9082611d4f565b602082019050919050565b60006020820190508181036000830152611db481611d78565b9050919050565b7f476f616c206a6520646f7365676e757400000000000000000000000000000000600082015250565b6000611df1601083611753565b9150611dfc82611dbb565b602082019050919050565b60006020820190508181036000830152611e2081611de4565b9050919050565b7f4e656d612075706c617465207a6120726566756e640000000000000000000000600082015250565b6000611e5d601583611753565b9150611e6882611e27565b602082019050919050565b60006020820190508181036000830152611e8c81611e50565b9050919050565b6000604082019050611ea860008301856117d8565b611eb560208301846117d8565b9392505050565b7f476f616c203e2030000000000000000000000000000000000000000000000000600082015250565b6000611ef2600883611753565b9150611efd82611ebc565b602082019050919050565b60006020820190508181036000830152611f2181611ee5565b9050919050565b7f4475726174696f6e203e20300000000000000000000000000000000000000000600082015250565b6000611f5e600c83611753565b9150611f6982611f28565b602082019050919050565b60006020820190508181036000830152611f8d81611f51565b9050919050565b7f4e487b7100000000000000000000000000000000000000000000000000000000600052601160045260246000fd5b6000611fce82611683565b9150611fd983611683565b9250828201905080821115611ff157611ff0611f94565b5b92915050565b7f4e487b7100000000000000000000000000000000000000000000000000000000600052604160045260246000fd5b60008190508160005260206000209050919050565b60006020601f8301049050919050565b600082821b905092915050565b6000600883026120887fffffffffffffffffffffffffffffffffffffffffffffffffffffffffffffffff8261204b565b612092868361204b565b95508019841693508086168417925050509392505050565b6000819050919050565b60006120cf6120ca6120c584611683565b6120aa565b611683565b9050919050565b6000819050919050565b6120e9836120b4565b6120fd6120f5826120d6565b848454612058565b825550505050565b600090565b612112612105565b61211d8184846120e0565b505050565b5b818110156121415761213660008261210a565b600181019050612123565b5050565b601f8211156121865761215781612026565b6121608461203b565b8101602085101561216f578190505b61218361217b8561203b565b830182612122565b50505b505050565b600082821c905092915050565b60006121a96000198460080261218b565b1980831691505092915050565b60006121c28383612198565b9150826002028217905092915050565b6121db82611748565b67ffffffffffffffff8111156121f4576121f3611ff7565b5b6121fe8254611cb2565b612209828285612145565b600060209050601f83116001811461223c576000841561222a578287015190505b61223485826121b6565b86555061229c565b601f19841661224a86612026565b60005b828110156122725784890151825560018201915060208501945060208101905061224d565b8683101561228f578489015161228b601f891682612198565b8355505b6001600288020188555050505b505050505050565b60006080820190506122b960008301876117d8565b6122c66020830186611718565b6122d360408301856117d8565b6122e060608301846117d8565b95945050505050565b7f4e69737465206b726561746f72206b616d70616e6a6500000000000000000000600082015250565b600061231f601683611753565b915061232a826122e9565b602082019050919050565b6000602082019050818103600083015261234e81612312565b9050919050565b7f476f616c206e696a6520646f7365676e75740000000000000000000000000000600082015250565b600061238b601283611753565b915061239682612355565b602082019050919050565b600060208201905081810360008301526123ba8161237e565b9050919050565b7f566563206973706c6163656e6f00000000000000000000000000000000000000600082015250565b60006123f7600d83611753565b9150612402826123c1565b602082019050919050565b60006020820190508181036000830152612426816123ea565b9050919050565b600060608201905061244260008301866117d8565b61244f6020830185611718565b61245c60408301846117d8565b949350505050565b7f43616d706169676e206a6520676f746f76000000000000000000000000000000600082015250565b600061249a601183611753565b91506124a582612464565b602082019050919050565b600060208201905081810360008301526124c98161248d565b9050919050565b7f4e487b7100000000000000000000000000000000000000000000000000000000600052603260045260246000fd5b600061250a82611683565b91507fffffffffffffffffffffffffffffffffffffffffffffffffffffffffffffffff820361253c5761253b611f94565b5b600182019050919050565b60006040820190508181036000830152612561818561179f565b905061257060208301846117d8565b9392505050565b60006040820190508181036000830152612591818561179f565b90506125a06020830184611718565b9392505050565b600060408201905081810360008301526125c1818561179f565b905081810360208301526125d5818461179f565b90509392505050565b7f4e487b7100000000000000000000000000000000000000000000000000000000600052605160045260246000fdfe3e3e205b536f6c69646974795d20526566756e64206b616d70616e6a65204944203d3e3e205b536f6c69646974795d2055706c617461206e61206b616d70616e6a75204944203d3e3e205b536f6c69646974795d205769746864726177206b616d70616e6a65204944203d3e3e205b536f6c69646974795d204b72656972616e61206b616d70616e6a61204944203da2646970667358221220671f869c5903f80075d1f50a8f068085775f25d498784c6702f22b33c1a5a43c64736f6c63430008110033",
  "linkReferences": {},
  "deployedLinkReferences": {}
}