{
  "_format": "hh-sol-artifact-1",
  "contractName": "Crowdfunding",
  "sourceName": "contracts/Crowdfunding.sol",
  "abi": [
    {
      "anonymous": false,
      "inputs": [
        {
          "indexed": false,
          "internalType": "uint256",
          "name": "id",
          "type": "uint256"
        },
        {
          "indexed": false,
          "internalType": "address",
          "name": "owner",
          "type": "address"
        },
        {
          "indexed": false,
          "internalType": "uint256",
          "name": "goal",
          "type": "uint256"
        },
        {
          "indexed": false,
          "internalType": "uint256",
          "name": "deadline",
          "type": "uint256"
        }
      ],
      "name": "CampaignCreated",
      "type": "event"
    },
    {
      "anonymous": false,
      "inputs": [
        {
          "indexed": false,
          "internalType": "uint256",
          "name": "id",
          "type": "uint256"
        },
        {
          "indexed": true,
          "internalType": "address",
          "name": "funder",
          "type": "address"
        },
        {
          "indexed": false,
          "internalType": "uint256",
          "name": "amount",
          "type": "uint256"
        }
      ],
      "name": "Pledged",
      "type": "event"
    },
    {
      "anonymous": false,
      "inputs": [
        {
          "indexed": false,
          "internalType": "uint256",
          "name": "id",
          "type": "uint256"
        },
        {
          "indexed": true,
          "internalType": "address",
          "name": "funder",
          "type": "address"
        },
        {
          "indexed": false,
          "internalType": "uint256",
          "name": "amount",
          "type": "uint256"
        }
      ],
      "name": "Refunded",
      "type": "event"
    },
    {
      "anonymous": false,
      "inputs": [
        {
          "indexed": false,
          "internalType": "uint256",
          "name": "id",
          "type": "uint256"
        },
        {
          "indexed": false,
          "internalType": "address",
          "name": "owner",
          "type": "address"
        },
        {
          "indexed": false,
          "internalType": "uint256",
          "name": "amount",
          "type": "uint256"
        }
      ],
      "name": "Withdrawn",
      "type": "event"
    },
    {
      "inputs": [],
      "name": "campaignCount",
      "outputs": [
        {
          "internalType": "uint256",
          "name": "",
          "type": "uint256"
        }
      ],
      "stateMutability": "view",
      "type": "function"
    },
    {
      "inputs": [
        {
          "internalType": "uint256",
          "name": "",
          "type": "uint256"
        }
      ],
      "name": "campaigns",
      "outputs": [
        {
          "internalType": "address payable",
          "name": "owner",
          "type": "address"
        },
        {
          "internalType": "string",
          "name": "title",
          "type": "string"
        },
        {
          "internalType": "uint256",
          "name": "goal",
          "type": "uint256"
        },
        {
          "internalType": "uint256",
          "name": "pledged",
          "type": "uint256"
        },
        {
          "internalType": "uint256",
          "name": "deadline",
          "type": "uint256"
        },
        {
          "internalType": "bool",
          "name": "claimed",
          "type": "bool"
        }
      ],
      "stateMutability": "view",
      "type": "function"
    },
    {
      "inputs": [
        {
          "internalType": "string",
          "name": "_title",
          "type": "string"
        },
        {
          "internalType": "uint256",
          "name": "_goal",
          "type": "uint256"
        },
        {
          "internalType": "uint256",
          "name": "_duration",
          "type": "uint256"
        }
      ],
      "name": "createCampaign",
      "outputs": [],
      "stateMutability": "nonpayable",
      "type": "function"
    },
    {
      "inputs": [],
      "name": "getCampaigns",
      "outputs": [
        {
          "components": [
            {
              "internalType": "address payable",
              "name": "owner",
              "type": "address"
            },
            {
              "internalType": "string",
              "name": "title",
              "type": "string"
            },
            {
              "internalType": "uint256",
              "name": "goal",
              "type": "uint256"
            },
            {
              "internalType": "uint256",
              "name": "pledged",
              "type": "uint256"
            },
            {
              "internalType": "uint256",
              "name": "deadline",
              "type": "uint256"
            },
            {
              "internalType": "bool",
              "name": "claimed",
              "type": "bool"
            }
          ],
          "internalType": "struct Crowdfunding.Campaign[]",
          "name": "",
          "type": "tuple[]"
        }
      ],
      "stateMutability": "view",
      "type": "function"
    },
    {
      "inputs": [
        {
          "internalType": "uint256",
          "name": "_id",
          "type": "uint256"
        }
      ],
      "name": "pledge",
      "outputs": [],
      "stateMutability": "payable",
      "type": "function"
    },
    {
      "inputs": [
        {
          "internalType": "uint256",
          "name": "",
          "type": "uint256"
        },
        {
          "internalType": "address",
          "name": "",
          "type": "address"
        }
      ],
      "name": "pledges",
      "outputs": [
        {
          "internalType": "uint256",
          "name": "",
          "type": "uint256"
        }
      ],
      "stateMutability": "view",
      "type": "function"
    },
    {
      "inputs": [
        {
          "internalType": "uint256",
          "name": "_id",
          "type": "uint256"
        }
      ],
      "name": "refund",
      "outputs": [],
      "stateMutability": "nonpayable",
      "type": "function"
    },
    {
      "inputs": [
        {
          "internalType": "uint256",
          "name": "_id",
          "type": "uint256"
        }
      ],
      "name": "withdraw",
      "outputs": [],
      "stateMutability": "nonpayable",
      "type": "function"
    }
  ],
  "bytecode": "0x608060405234801561001057600080fd5b50611aff806100206000396000f3fe60806040526004361061007b5760003560e01c80637274e30d1161004e5780637274e30d1461013d5780637326c9c0146101685780638e97f52414610184578063a6b03633146101c15761007b565b8063141961bc14610080578063278ecde1146100c25780632e1a7d4d146100eb5780633020580b14610114575b600080fd5b34801561008c57600080fd5b506100a760048036038101906100a29190610d7c565b6101ec565b6040516100b996959493929190610ea4565b60405180910390f35b3480156100ce57600080fd5b506100e960048036038101906100e49190610d7c565b6102dd565b005b3480156100f757600080fd5b50610112600480360381019061010d9190610d7c565b61050f565b005b34801561012057600080fd5b5061013b60048036038101906101369190610f71565b61076d565b005b34801561014957600080fd5b506101526109a4565b60405161015f9190610fe5565b60405180910390f35b610182600480360381019061017d9190610d7c565b6109aa565b005b34801561019057600080fd5b506101ab60048036038101906101a6919061103e565b610add565b6040516101b89190610fe5565b60405180910390f35b3480156101cd57600080fd5b506101d6610b02565b6040516101e39190611240565b60405180910390f35b60016020528060005260406000206000915090508060000160009054906101000a900473ffffffffffffffffffffffffffffffffffffffff169080600101805461023590611291565b80601f016020809104026020016040519081016040528092919081815260200182805461026190611291565b80156102ae5780601f10610283576101008083540402835291602001916102ae565b820191906000526020600020905b81548152906001019060200180831161029157829003601f168201915b5050505050908060020154908060030154908060040154908060050160009054906101000a900460ff16905086565b6000600160008381526020019081526020016000209050806004015442101561033b576040517f08c379a00000000000000000000000000000000000000000000000000000000081526004016103329061130e565b60405180910390fd5b8060020154816003015410610385576040517f08c379a000000000000000000000000000000000000000000000000000000000815260040161037c9061137a565b60405180910390fd5b60006002600084815260200190815260200160002060003373ffffffffffffffffffffffffffffffffffffffff1673ffffffffffffffffffffffffffffffffffffffff1681526020019081526020016000205490506000811161041d576040517f08c379a0000000000000000000000000000000000000000000000000000000008152600401610414906113e6565b60405180910390fd5b60006002600085815260200190815260200160002060003373ffffffffffffffffffffffffffffffffffffffff1673ffffffffffffffffffffffffffffffffffffffff168152602001908152602001600020819055503373ffffffffffffffffffffffffffffffffffffffff166108fc829081150290604051600060405180830381858888f193505050501580156104b9573d6000803e3d6000fd5b503373ffffffffffffffffffffffffffffffffffffffff167f7ca5472b7ea78c2c0141c5a12ee6d170cf4ce8ed06be3d22c8252ddfc7a6a2c48483604051610502929190611406565b60405180910390a2505050565b60006001600083815260200190815260200160002090508060000160009054906101000a900473ffffffffffffffffffffffffffffffffffffffff1673ffffffffffffffffffffffffffffffffffffffff163373ffffffffffffffffffffffffffffffffffffffff16146105b8576040517f08c379a00000000000000000000000000000000000000000000000000000000081526004016105af9061147b565b60405180910390fd5b80600401544210156105ff576040517f08c379a00000000000000000000000000000000000000000000000000000000081526004016105f69061130e565b60405180910390fd5b80600201548160030154101561064a576040517f08c379a0000000000000000000000000000000000000000000000000000000008152600401610641906114e7565b60405180910390fd5b8060050160009054906101000a900460ff161561069c576040517f08c379a000000000000000000000000000000000000000000000000000000000815260040161069390611553565b60405180910390fd5b60018160050160006101000a81548160ff0219169083151502179055506000816003015490508160000160009054906101000a900473ffffffffffffffffffffffffffffffffffffffff1673ffffffffffffffffffffffffffffffffffffffff166108fc829081150290604051600060405180830381858888f1935050505015801561072c573d6000803e3d6000fd5b507fcf7d23a3cbe4e8b36ff82fd1b05b1b17373dc7804b4ebbd6e2356716ef20237283338360405161076093929190611582565b60405180910390a1505050565b600082116107b0576040517f08c379a00000000000000000000000000000000000000000000000000000000081526004016107a790611605565b60405180910390fd5b600081116107f3576040517f08c379a00000000000000000000000000000000000000000000000000000000081526004016107ea90611671565b60405180910390fd5b600160008082825461080591906116c0565b925050819055506040518060c001604052803373ffffffffffffffffffffffffffffffffffffffff16815260200185858080601f016020809104026020016040519081016040528093929190818152602001838380828437600081840152601f19601f82011690508083019250505050505050815260200183815260200160008152602001824261089691906116c0565b815260200160001515815250600160008054815260200190815260200160002060008201518160000160006101000a81548173ffffffffffffffffffffffffffffffffffffffff021916908373ffffffffffffffffffffffffffffffffffffffff160217905550602082015181600101908161091291906118cf565b5060408201518160020155606082015181600301556080820151816004015560a08201518160050160006101000a81548160ff0219169083151502179055509050507f91b289a829e71d811b8c69e4a24ba2d40d115d8a236e9a724cb3bb2d43cf72236000543384844261098691906116c0565b60405161099694939291906119a1565b60405180910390a150505050565b60005481565b600060016000838152602001908152602001600020905080600401544210610a07576040517f08c379a00000000000000000000000000000000000000000000000000000000081526004016109fe90611a32565b60405180910390fd5b34816003016000828254610a1b91906116c0565b92505081905550346002600084815260200190815260200160002060003373ffffffffffffffffffffffffffffffffffffffff1673ffffffffffffffffffffffffffffffffffffffff1681526020019081526020016000206000828254610a8291906116c0565b925050819055503373ffffffffffffffffffffffffffffffffffffffff167f2757ac6a40883f4491cc56930ae964df9034e343e660d5179eb01e198336756b8334604051610ad1929190611406565b60405180910390a25050565b6002602052816000526040600020602052806000526040600020600091509150505481565b60606000805467ffffffffffffffff811115610b2157610b206116f4565b5b604051908082528060200260200182016040528015610b5a57816020015b610b47610cee565b815260200190600190039081610b3f5790505b50905060005b600054811015610ce65760016000600183610b7b91906116c0565b81526020019081526020016000206040518060c00160405290816000820160009054906101000a900473ffffffffffffffffffffffffffffffffffffffff1673ffffffffffffffffffffffffffffffffffffffff1673ffffffffffffffffffffffffffffffffffffffff168152602001600182018054610bfa90611291565b80601f0160208091040260200160405190810160405280929190818152602001828054610c2690611291565b8015610c735780601f10610c4857610100808354040283529160200191610c73565b820191906000526020600020905b815481529060010190602001808311610c5657829003601f168201915b505050505081526020016002820154815260200160038201548152602001600482015481526020016005820160009054906101000a900460ff161515151581525050828281518110610cc857610cc7611a52565b5b60200260200101819052508080610cde90611a81565b915050610b60565b508091505090565b6040518060c00160405280600073ffffffffffffffffffffffffffffffffffffffff168152602001606081526020016000815260200160008152602001600081526020016000151581525090565b600080fd5b600080fd5b6000819050919050565b610d5981610d46565b8114610d6457600080fd5b50565b600081359050610d7681610d50565b92915050565b600060208284031215610d9257610d91610d3c565b5b6000610da084828501610d67565b91505092915050565b600073ffffffffffffffffffffffffffffffffffffffff82169050919050565b6000610dd482610da9565b9050919050565b610de481610dc9565b82525050565b600081519050919050565b600082825260208201905092915050565b60005b83811015610e24578082015181840152602081019050610e09565b60008484015250505050565b6000601f19601f8301169050919050565b6000610e4c82610dea565b610e568185610df5565b9350610e66818560208601610e06565b610e6f81610e30565b840191505092915050565b610e8381610d46565b82525050565b60008115159050919050565b610e9e81610e89565b82525050565b600060c082019050610eb96000830189610ddb565b8181036020830152610ecb8188610e41565b9050610eda6040830187610e7a565b610ee76060830186610e7a565b610ef46080830185610e7a565b610f0160a0830184610e95565b979650505050505050565b600080fd5b600080fd5b600080fd5b60008083601f840112610f3157610f30610f0c565b5b8235905067ffffffffffffffff811115610f4e57610f4d610f11565b5b602083019150836001820283011115610f6a57610f69610f16565b5b9250929050565b60008060008060608587031215610f8b57610f8a610d3c565b5b600085013567ffffffffffffffff811115610fa957610fa8610d41565b5b610fb587828801610f1b565b94509450506020610fc887828801610d67565b9250506040610fd987828801610d67565b91505092959194509250565b6000602082019050610ffa6000830184610e7a565b92915050565b600061100b82610da9565b9050919050565b61101b81611000565b811461102657600080fd5b50565b60008135905061103881611012565b92915050565b6000806040838503121561105557611054610d3c565b5b600061106385828601610d67565b925050602061107485828601611029565b9150509250929050565b600081519050919050565b600082825260208201905092915050565b6000819050602082019050919050565b6110b381610dc9565b82525050565b600082825260208201905092915050565b60006110d582610dea565b6110df81856110b9565b93506110ef818560208601610e06565b6110f881610e30565b840191505092915050565b61110c81610d46565b82525050565b61111b81610e89565b82525050565b600060c08301600083015161113960008601826110aa565b506020830151848203602086015261115182826110ca565b91505060408301516111666040860182611103565b5060608301516111796060860182611103565b50608083015161118c6080860182611103565b5060a083015161119f60a0860182611112565b508091505092915050565b60006111b68383611121565b905092915050565b6000602082019050919050565b60006111d68261107e565b6111e08185611089565b9350836020820285016111f28561109a565b8060005b8581101561122e578484038952815161120f85826111aa565b945061121a836111be565b925060208a019950506001810190506111f6565b50829750879550505050505092915050565b6000602082019050818103600083015261125a81846111cb565b905092915050565b7f4e487b7100000000000000000000000000000000000000000000000000000000600052602260045260246000fd5b600060028204905060018216806112a957607f821691505b6020821081036112bc576112bb611262565b5b50919050565b7f43616d706169676e206e6f7420656e6465640000000000000000000000000000600082015250565b60006112f8601283610df5565b9150611303826112c2565b602082019050919050565b60006020820190508181036000830152611327816112eb565b9050919050565b7f476f616c20776173207265616368656400000000000000000000000000000000600082015250565b6000611364601083610df5565b915061136f8261132e565b602082019050919050565b6000602082019050818103600083015261139381611357565b9050919050565b7f4e6f20706c6564676520746f20726566756e6400000000000000000000000000600082015250565b60006113d0601383610df5565b91506113db8261139a565b602082019050919050565b600060208201905081810360008301526113ff816113c3565b9050919050565b600060408201905061141b6000830185610e7a565b6114286020830184610e7a565b9392505050565b7f4e6f74206f776e65720000000000000000000000000000000000000000000000600082015250565b6000611465600983610df5565b91506114708261142f565b602082019050919050565b6000602082019050818103600083015261149481611458565b9050919050565b7f476f616c206e6f74207265616368656400000000000000000000000000000000600082015250565b60006114d1601083610df5565b91506114dc8261149b565b602082019050919050565b60006020820190508181036000830152611500816114c4565b9050919050565b7f416c726561647920636c61696d65640000000000000000000000000000000000600082015250565b600061153d600f83610df5565b915061154882611507565b602082019050919050565b6000602082019050818103600083015261156c81611530565b9050919050565b61157c81611000565b82525050565b60006060820190506115976000830186610e7a565b6115a46020830185611573565b6115b16040830184610e7a565b949350505050565b7f476f616c203e2030000000000000000000000000000000000000000000000000600082015250565b60006115ef600883610df5565b91506115fa826115b9565b602082019050919050565b6000602082019050818103600083015261161e816115e2565b9050919050565b7f4475726174696f6e203e20300000000000000000000000000000000000000000600082015250565b600061165b600c83610df5565b915061166682611625565b602082019050919050565b6000602082019050818103600083015261168a8161164e565b9050919050565b7f4e487b7100000000000000000000000000000000000000000000000000000000600052601160045260246000fd5b60006116cb82610d46565b91506116d683610d46565b92508282019050808211156116ee576116ed611691565b5b92915050565b7f4e487b7100000000000000000000000000000000000000000000000000000000600052604160045260246000fd5b60008190508160005260206000209050919050565b60006020601f8301049050919050565b600082821b905092915050565b6000600883026117857fffffffffffffffffffffffffffffffffffffffffffffffffffffffffffffffff82611748565b61178f8683611748565b95508019841693508086168417925050509392505050565b6000819050919050565b60006117cc6117c76117c284610d46565b6117a7565b610d46565b9050919050565b6000819050919050565b6117e6836117b1565b6117fa6117f2826117d3565b848454611755565b825550505050565b600090565b61180f611802565b61181a8184846117dd565b505050565b5b8181101561183e57611833600082611807565b600181019050611820565b5050565b601f8211156118835761185481611723565b61185d84611738565b8101602085101561186c578190505b61188061187885611738565b83018261181f565b50505b505050565b600082821c905092915050565b60006118a660001984600802611888565b1980831691505092915050565b60006118bf8383611895565b9150826002028217905092915050565b6118d882610dea565b67ffffffffffffffff8111156118f1576118f06116f4565b5b6118fb8254611291565b611906828285611842565b600060209050601f8311600181146119395760008415611927578287015190505b61193185826118b3565b865550611999565b601f19841661194786611723565b60005b8281101561196f5784890151825560018201915060208501945060208101905061194a565b8683101561198c5784890151611988601f891682611895565b8355505b6001600288020188555050505b505050505050565b60006080820190506119b66000830187610e7a565b6119c36020830186611573565b6119d06040830185610e7a565b6119dd6060830184610e7a565b95945050505050565b7f43616d706169676e20656e646564000000000000000000000000000000000000600082015250565b6000611a1c600e83610df5565b9150611a27826119e6565b602082019050919050565b60006020820190508181036000830152611a4b81611a0f565b9050919050565b7f4e487b7100000000000000000000000000000000000000000000000000000000600052603260045260246000fd5b6000611a8c82610d46565b91507fffffffffffffffffffffffffffffffffffffffffffffffffffffffffffffffff8203611abe57611abd611691565b5b60018201905091905056fea2646970667358221220b7630559b6f9f64040b7eb31a0f974704ca467cbcf01b00233b3312965d7b77764736f6c63430008110033",
  "linkReferences": {},
  "deployedLinkReferences": {}
}